{
  "_format": "hh-sol-artifact-1",
  "contractName": "TreatADonut",
  "sourceName": "src/contracts/TreatADonut.sol",
  "abi": [
    {
      "inputs": [],
      "stateMutability": "nonpayable",
      "type": "constructor"
    },
    {
      "inputs": [],
      "name": "BalanceDepositOverflow",
      "type": "error"
    },
    {
      "inputs": [],
      "name": "BalanceWithdrawOverflow",
      "type": "error"
    },
    {
      "inputs": [],
      "name": "BaseFeeCalculationToZero",
      "type": "error"
    },
    {
      "inputs": [],
      "name": "BaseFeeExceptionOverflow",
      "type": "error"
    },
    {
      "inputs": [],
      "name": "TotalPaymentCalculationOverflow",
      "type": "error"
    },
    {
      "inputs": [],
      "name": "UserIndexToAddressNotMatched",
      "type": "error"
    },
    {
      "anonymous": false,
      "inputs": [
        {
          "indexed": true,
          "internalType": "address",
          "name": "user",
          "type": "address"
        },
        {
          "indexed": false,
          "internalType": "uint256",
          "name": "timestamp",
          "type": "uint256"
        }
      ],
      "name": "DonutBoxActivated",
      "type": "event"
    },
    {
      "anonymous": false,
      "inputs": [
        {
          "indexed": true,
          "internalType": "address",
          "name": "user",
          "type": "address"
        },
        {
          "indexed": false,
          "internalType": "uint256",
          "name": "timestamp",
          "type": "uint256"
        }
      ],
      "name": "DonutBoxDeactivated",
      "type": "event"
    },
    {
      "anonymous": false,
      "inputs": [
        {
          "indexed": true,
          "internalType": "address",
          "name": "from",
          "type": "address"
        },
        {
          "indexed": true,
          "internalType": "address",
          "name": "to",
          "type": "address"
        },
        {
          "indexed": false,
          "internalType": "uint256",
          "name": "amount",
          "type": "uint256"
        },
        {
          "indexed": false,
          "internalType": "string",
          "name": "message",
          "type": "string"
        },
        {
          "indexed": false,
          "internalType": "uint256",
          "name": "timestamp",
          "type": "uint256"
        }
      ],
      "name": "DonutSupported",
      "type": "event"
    },
    {
      "anonymous": false,
      "inputs": [
        {
          "indexed": true,
          "internalType": "address",
          "name": "previousOwner",
          "type": "address"
        },
        {
          "indexed": true,
          "internalType": "address",
          "name": "newOwner",
          "type": "address"
        }
      ],
      "name": "OwnershipTransferred",
      "type": "event"
    },
    {
      "anonymous": false,
      "inputs": [
        {
          "indexed": false,
          "internalType": "address",
          "name": "user",
          "type": "address"
        },
        {
          "indexed": false,
          "internalType": "bool",
          "name": "success",
          "type": "bool"
        },
        {
          "indexed": false,
          "internalType": "uint256",
          "name": "timestamp",
          "type": "uint256"
        }
      ],
      "name": "UserRegistered",
      "type": "event"
    },
    {
      "anonymous": false,
      "inputs": [
        {
          "indexed": false,
          "internalType": "address",
          "name": "user",
          "type": "address"
        },
        {
          "indexed": false,
          "internalType": "bool",
          "name": "success",
          "type": "bool"
        },
        {
          "indexed": false,
          "internalType": "uint256",
          "name": "timestamp",
          "type": "uint256"
        }
      ],
      "name": "UserUnregistered",
      "type": "event"
    },
    {
      "anonymous": false,
      "inputs": [
        {
          "indexed": true,
          "internalType": "address",
          "name": "user",
          "type": "address"
        },
        {
          "indexed": false,
          "internalType": "uint256",
          "name": "amount",
          "type": "uint256"
        },
        {
          "indexed": false,
          "internalType": "uint256",
          "name": "timestamp",
          "type": "uint256"
        }
      ],
      "name": "Withdrawn",
      "type": "event"
    },
    {
      "inputs": [],
      "name": "DONUT",
      "outputs": [
        {
          "internalType": "uint256",
          "name": "",
          "type": "uint256"
        }
      ],
      "stateMutability": "view",
      "type": "function"
    },
    {
      "inputs": [],
      "name": "activateBox",
      "outputs": [],
      "stateMutability": "nonpayable",
      "type": "function"
    },
    {
      "inputs": [
        {
          "internalType": "address",
          "name": "_user",
          "type": "address"
        }
      ],
      "name": "boxOf",
      "outputs": [
        {
          "components": [
            {
              "internalType": "uint256",
              "name": "balance",
              "type": "uint256"
            },
            {
              "internalType": "enum DonutBox.BoxState",
              "name": "state",
              "type": "uint8"
            }
          ],
          "internalType": "struct DonutBox.Box",
          "name": "",
          "type": "tuple"
        }
      ],
      "stateMutability": "view",
      "type": "function"
    },
    {
      "inputs": [],
      "name": "deactivateBox",
      "outputs": [],
      "stateMutability": "nonpayable",
      "type": "function"
    },
    {
      "inputs": [],
      "name": "destroyContract",
      "outputs": [],
      "stateMutability": "nonpayable",
      "type": "function"
    },
    {
      "inputs": [
        {
          "internalType": "address",
          "name": "_beneficiary",
          "type": "address"
        }
      ],
      "name": "getReceiptsOfBeneficiary",
      "outputs": [
        {
          "components": [
            {
              "internalType": "address",
              "name": "from",
              "type": "address"
            },
            {
              "internalType": "address",
              "name": "to",
              "type": "address"
            },
            {
              "internalType": "uint256",
              "name": "amount",
              "type": "uint256"
            },
            {
              "internalType": "string",
              "name": "message",
              "type": "string"
            },
            {
              "internalType": "uint256",
              "name": "timestamp",
              "type": "uint256"
            }
          ],
          "internalType": "struct Support.SupportReceipt[]",
          "name": "",
          "type": "tuple[]"
        }
      ],
      "stateMutability": "view",
      "type": "function"
    },
    {
      "inputs": [
        {
          "internalType": "address",
          "name": "_supporter",
          "type": "address"
        }
      ],
      "name": "getReceiptsOfSupporter",
      "outputs": [
        {
          "components": [
            {
              "internalType": "address",
              "name": "from",
              "type": "address"
            },
            {
              "internalType": "address",
              "name": "to",
              "type": "address"
            },
            {
              "internalType": "uint256",
              "name": "amount",
              "type": "uint256"
            },
            {
              "internalType": "string",
              "name": "message",
              "type": "string"
            },
            {
              "internalType": "uint256",
              "name": "timestamp",
              "type": "uint256"
            }
          ],
          "internalType": "struct Support.SupportReceipt[]",
          "name": "",
          "type": "tuple[]"
        }
      ],
      "stateMutability": "view",
      "type": "function"
    },
    {
      "inputs": [],
      "name": "getUsers",
      "outputs": [
        {
          "internalType": "address[]",
          "name": "",
          "type": "address[]"
        }
      ],
      "stateMutability": "view",
      "type": "function"
    },
    {
      "inputs": [
        {
          "internalType": "address",
          "name": "_user",
          "type": "address"
        }
      ],
      "name": "isUser",
      "outputs": [
        {
          "internalType": "bool",
          "name": "",
          "type": "bool"
        }
      ],
      "stateMutability": "view",
      "type": "function"
    },
    {
      "inputs": [],
      "name": "owner",
      "outputs": [
        {
          "internalType": "address",
          "name": "",
          "type": "address"
        }
      ],
      "stateMutability": "view",
      "type": "function"
    },
    {
      "inputs": [],
      "name": "register",
      "outputs": [],
      "stateMutability": "nonpayable",
      "type": "function"
    },
    {
      "inputs": [
        {
          "internalType": "address",
          "name": "_to",
          "type": "address"
        },
        {
          "internalType": "uint256",
          "name": "_amount",
          "type": "uint256"
        },
        {
          "internalType": "string",
          "name": "_message",
          "type": "string"
        }
      ],
      "name": "supportDonut",
      "outputs": [],
      "stateMutability": "payable",
      "type": "function"
    },
    {
      "inputs": [
        {
          "internalType": "address",
          "name": "_newOwner",
          "type": "address"
        }
      ],
      "name": "transferOwnership",
      "outputs": [],
      "stateMutability": "nonpayable",
      "type": "function"
    },
    {
      "inputs": [],
      "name": "unregister",
      "outputs": [],
      "stateMutability": "nonpayable",
      "type": "function"
    },
    {
      "inputs": [
        {
          "internalType": "uint256",
          "name": "_amount",
          "type": "uint256"
        }
      ],
      "name": "withdraw",
      "outputs": [],
      "stateMutability": "nonpayable",
      "type": "function"
    }
  ],
  "bytecode": "0x60806040523480156200001157600080fd5b50600080546001600160a01b0319163390811782556040519091907f8be0079c531659141344cd1fd0a4f28419497f9722a3daafe3b4186f6b6457e0908290a36200005b62000061565b6200023a565b3360008181526002602052604090205460ff1615620000b95760405162461bcd60e51b815260206004820152601060248201526f3cb2ba1030903b30b634b2103ab9b2b960811b604482015260640160405180910390fd5b620000c48162000181565b604080516001600160a01b038316815260016020820152428183015290517f573d34be45ff57aee55b8a09425a3072980c04a46dbad91fb3569efb38b006a59181900360600190a16200013a816001600160a01b031660009081526004602052604090206001908101805460ff19169091179055565b806001600160a01b03167f3aa9434b0ce05599c0933372974baba95f85f26d1ee581c4b23eba20727ca4e1426040516200017691815260200190565b60405180910390a250565b6001600160a01b0381166000818152600260205260408120805460ff1916600190811790915580548082018255918190527fb10e2d527612073b26eecdfd717e6a320cf44b4afac2b0732d9fcbe2b7fa0cf690910180546001600160a01b0319169092179091558054620001f6919062000212565b6001600160a01b03909116600090815260036020526040902055565b818103818111156200023457634e487b7160e01b600052601160045260246000fd5b92915050565b611c59806200024a6000396000f3fe6080604052600436106100e75760003560e01c8063472129731161008a578063c9f2df5e11610059578063c9f2df5e1461025f578063e79a198f14610272578063e7df8ab514610287578063f2fde38b146102b057600080fd5b806347212973146101bd57806383b99a98146101ea5780638da5cb5b14610217578063c097ff7c1461023f57600080fd5b80632e1a7d4d116100c65780632e1a7d4d146101435780633622e9021461016357806340410712146101785780634209fff11461018d57600080fd5b8062ce8e3e146100ec578063092a5cce146101175780631aa3a0081461012e575b600080fd5b3480156100f857600080fd5b506101016102d0565b60405161010e9190611719565b60405180910390f35b34801561012357600080fd5b5061012c6102df565b005b34801561013a57600080fd5b5061012c610398565b34801561014f57600080fd5b5061012c61015e366004611766565b610482565b34801561016f57600080fd5b5061012c610628565b34801561018457600080fd5b5061012c6106b3565b34801561019957600080fd5b506101ad6101a836600461179b565b61075f565b604051901515815260200161010e565b3480156101c957600080fd5b506101dd6101d836600461179b565b610770565b60405161010e91906117d3565b3480156101f657600080fd5b5061020a61020536600461179b565b61078d565b60405161010e9190611852565b34801561022357600080fd5b506000546040516001600160a01b03909116815260200161010e565b34801561024b57600080fd5b5061020a61025a36600461179b565b610798565b61012c61026d36600461190e565b6107a3565b34801561027e57600080fd5b5061012c61094f565b34801561029357600080fd5b506102a2660aa87bee53800081565b60405190815260200161010e565b3480156102bc57600080fd5b5061012c6102cb36600461179b565b610a5c565b60606102da610afa565b905090565b6000546001600160a01b031633146103375760405162461bcd60e51b815260206004820152601660248201527537b7363c9030b63637bbb2b2103337b91037bbb732b960511b60448201526064015b60405180910390fd5b60085460ff16156103805760405162461bcd60e51b81526020600482015260136024820152721c99595b9d1c995b98de4819195d1958dd1959606a1b604482015260640161032e565b6008805460ff19166001179055610395610b5c565b30ff5b336103a281610bac565b156103e25760405162461bcd60e51b815260206004820152601060248201526f3cb2ba1030903b30b634b2103ab9b2b960811b604482015260640161032e565b6103eb81610bca565b604080516001600160a01b038316815260016020820152428183015290517f573d34be45ff57aee55b8a09425a3072980c04a46dbad91fb3569efb38b006a59181900360600190a161043c81610c59565b806001600160a01b03167f3aa9434b0ce05599c0933372974baba95f85f26d1ee581c4b23eba20727ca4e14260405161047791815260200190565b60405180910390a250565b61048b33610bac565b6104a75760405162461bcd60e51b815260040161032e906119d9565b60085460ff16156104f05760405162461bcd60e51b81526020600482015260136024820152721c99595b9d1c995b98de4819195d1958dd1959606a1b604482015260640161032e565b6008805460ff19166001179055806105445760405162461bcd60e51b81526020600482015260176024820152761e995c9bc8185b5bdd5b9d081b9bdd08185b1b1bddd959604a1b604482015260640161032e565b3361054e81610c87565b61056a5760405162461bcd60e51b815260040161032e90611a03565b8161058a826001600160a01b031660009081526004602052604090205490565b10156105cd5760405162461bcd60e51b81526020600482015260126024820152716e6f7420656e6f7567682062616c616e636560701b604482015260640161032e565b6105d78183610cbf565b604080518381524260208201526001600160a01b038316917f92ccf450a286a957af52509bc1c9939d1a6a481783e142e41e2499f0bb66ebc6910160405180910390a250506008805460ff19169055565b61063133610bac565b61064d5760405162461bcd60e51b815260040161032e906119d9565b61065633610c87565b6106725760405162461bcd60e51b815260040161032e90611a03565b61067b33610d7b565b60405142815233907faba59751917a4d191bd12ce3be6afef36ee64eb782e974048ea3dfb53bc7a37b906020015b60405180910390a2565b6106bc33610bac565b6106d85760405162461bcd60e51b815260040161032e906119d9565b6106e133610c87565b156107245760405162461bcd60e51b81526020600482015260136024820152720f2cae840c240c2c6e8d2ecc2e8cac840c4def606b1b604482015260640161032e565b61072d33610c59565b60405142815233907f3aa9434b0ce05599c0933372974baba95f85f26d1ee581c4b23eba20727ca4e1906020016106a9565b600061076a82610bac565b92915050565b604080518082019091526000808252602082015261076a82610da9565b606061076a82610e1d565b606061076a82611031565b600082116107ed5760405162461bcd60e51b81526020600482015260176024820152761e995c9bc8185b5bdd5b9d081b9bdd08185b1b1bddd959604a1b604482015260640161032e565b336001600160a01b0384168190036108475760405162461bcd60e51b815260206004820152601f60248201527f737570706f7274696e6720796f757273656c66206e6f7420616c6c6f77656400604482015260640161032e565b61085084610bac565b61086c5760405162461bcd60e51b815260040161032e906119d9565b61087584610c87565b6108915760405162461bcd60e51b815260040161032e90611a03565b600061089c8461123d565b9050803410156108e35760405162461bcd60e51b81526020600482015260126024820152711b9bdd08195b9bdd59da081c185e5b595b9d60721b604482015260640161032e565b6108ed8582611279565b6108f9828686866112b6565b846001600160a01b0316826001600160a01b03167f4630950eed79f15bd2a98fe24568d2c75d12e441d61458857ab44d373e7f971a86864260405161094093929190611a2e565b60405180910390a35050505050565b61095833610bac565b6109745760405162461bcd60e51b815260040161032e906119d9565b6000546001600160a01b031633036109c65760405162461bcd60e51b81526020600482015260156024820152743737ba1030b63637bbb2b2103337b91037bbb732b960591b604482015260640161032e565b336109d081611438565b604080516001600160a01b038316815260016020820152428183015290517faf6e6dae2857ce22679a0c9a0278698d056ccc0a50eafd56c77e74b775b360f39181900360600190a1610a2181610d7b565b806001600160a01b03167faba59751917a4d191bd12ce3be6afef36ee64eb782e974048ea3dfb53bc7a37b4260405161047791815260200190565b6000546001600160a01b03163314610aaf5760405162461bcd60e51b815260206004820152601660248201527537b7363c9030b63637bbb2b2103337b91037bbb732b960511b604482015260640161032e565b600080546001600160a01b0319166001600160a01b0383169081178255604051909133917f8be0079c531659141344cd1fd0a4f28419497f9722a3daafe3b4186f6b6457e09190a350565b60606001805480602002602001604051908101604052809291908181526020018280548015610b5257602002820191906000526020600020905b81546001600160a01b03168152600190910190602001808311610b34575b5050505050905090565b6000610b66610afa565b905060005b8151811015610ba857610b96828281518110610b8957610b89611a57565b60200260200101516115d2565b80610ba081611a83565b915050610b6b565b5050565b6001600160a01b031660009081526002602052604090205460ff1690565b6001600160a01b0381166000818152600260205260408120805460ff1916600190811790915580548082018255918190527fb10e2d527612073b26eecdfd717e6a320cf44b4afac2b0732d9fcbe2b7fa0cf690910180546001600160a01b0319169092179091558054610c3d9190611a9c565b6001600160a01b03909116600090815260036020526040902055565b6001600160a01b03811660009081526004602052604090206001908101805460ff191682805b021790555050565b6001600160a01b038116600090815260046020526040812060019081015460ff1681811115610cb857610cb86117bd565b1492915050565b610cc982826115fb565b6000826001600160a01b03168260405160006040518083038185875af1925050503d8060008114610d16576040519150601f19603f3d011682016040523d82523d6000602084013e610d1b565b606091505b5050905080610d7657610d2e8383611654565b60405162461bcd60e51b815260206004820152601a60248201527f6661696c656420746f2077697468647261772062616c616e6365000000000000604482015260640161032e565b505050565b6001600160a01b038116600090815260046020526040812060019081018054909160ff199091169083610c7f565b60408051808201909152600080825260208201526001600160a01b038216600090815260046020908152604091829020825180840190935280548352600180820154919284019160ff1690811115610e0357610e036117bd565b6001811115610e1457610e146117bd565b90525092915050565b6001600160a01b0381166000908152600660209081526040808320805482518185028101850190935280835260609493830182828015610e7c57602002820191906000526020600020905b815481526020019060010190808311610e68575b505050505090506000815167ffffffffffffffff811115610e9f57610e9f6118f8565b604051908082528060200260200182016040528015610ed857816020015b610ec56116d8565b815260200190600190039081610ebd5790505b50905060005b8251811015611029576005838281518110610efb57610efb611a57565b602002602001015181548110610f1357610f13611a57565b60009182526020918290206040805160a081018252600590930290910180546001600160a01b03908116845260018201541693830193909352600283015490820152600382018054919291606084019190610f6d90611aaf565b80601f0160208091040260200160405190810160405280929190818152602001828054610f9990611aaf565b8015610fe65780601f10610fbb57610100808354040283529160200191610fe6565b820191906000526020600020905b815481529060010190602001808311610fc957829003601f168201915b5050505050815260200160048201548152505082828151811061100b5761100b611a57565b6020026020010181905250808061102190611a83565b915050610ede565b509392505050565b6001600160a01b038116600090815260076020908152604080832080548251818502810185019093528083526060949383018282801561109057602002820191906000526020600020905b81548152602001906001019080831161107c575b505050505090506000815167ffffffffffffffff8111156110b3576110b36118f8565b6040519080825280602002602001820160405280156110ec57816020015b6110d96116d8565b8152602001906001900390816110d15790505b50905060005b825181101561102957600583828151811061110f5761110f611a57565b60200260200101518154811061112757611127611a57565b60009182526020918290206040805160a081018252600590930290910180546001600160a01b0390811684526001820154169383019390935260028301549082015260038201805491929160608401919061118190611aaf565b80601f01602080910402602001604051908101604052809291908181526020018280546111ad90611aaf565b80156111fa5780601f106111cf576101008083540402835291602001916111fa565b820191906000526020600020905b8154815290600101906020018083116111dd57829003601f168201915b5050505050815260200160048201548152505082828151811061121f5761121f611a57565b6020026020010181905250808061123590611a83565b9150506110f2565b6000660aa87bee5380008083029083828161125a5761125a611ae9565b041461076a57604051637706ac2d60e11b815260040160405180910390fd5b6000611284826116b2565b9050818111156112a75760405163d3bbb1f360e01b815260040160405180910390fd5b8082039150610d768383611654565b6040805160a0810182526001600160a01b0380871682528581166020830190815292820185815260608301858152426080850152600580546001810182556000829052855191027f036b6384b5eca791c62761152d0c79bb0604c104a5fb6f4eb0703f3154bb3db0810180549286166001600160a01b031993841617815596517f036b6384b5eca791c62761152d0c79bb0604c104a5fb6f4eb0703f3154bb3db1820180549190961692169190911790935590517f036b6384b5eca791c62761152d0c79bb0604c104a5fb6f4eb0703f3154bb3db2830155519192839290917f036b6384b5eca791c62761152d0c79bb0604c104a5fb6f4eb0703f3154bb3db301906113c29082611b4d565b50608091909101516004909101556005546000906113e290600190611a9c565b6001600160a01b0396871660009081526006602090815260408083208054600181810183559185528385200185905598909916825260078152978120805497880181558152969096209094019490945550505050565b6001600160a01b038116600081815260036020526040902054600180549192918390811061146857611468611a57565b6000918252602090912001546001600160a01b03161461149b57604051630e845ee360e11b815260040160405180910390fd5b6001600160a01b0382166000908152600260205260409020805460ff19169055600180546114ca908290611a9c565b815481106114da576114da611a57565b600091825260209091200154600180546001600160a01b03909216918390811061150657611506611a57565b9060005260206000200160006101000a8154816001600160a01b0302191690836001600160a01b031602179055508060036000600180808054905061154b9190611a9c565b8154811061155b5761155b611a57565b60009182526020808320909101546001600160a01b03168352820192909252604001902055600180548061159157611591611c0d565b60008281526020808220830160001990810180546001600160a01b03191690559092019092556001600160a01b039390931681526003909252506040812055565b6001600160a01b0381166000908152600460205260409020548015610ba857610ba88282610cbf565b6001600160a01b0382166000908152600460205260409020548082111561163557604051631494a4d960e11b815260040160405180910390fd5b6001600160a01b03909216600090815260046020526040902091039055565b6001600160a01b0382166000908152600460205260409020548181018181101561169157604051634ee055cb60e01b815260040160405180910390fd5b6001600160a01b039093166000908152600460205260409020929092555050565b60006064820480820361076a57604051631200f7cd60e31b815260040160405180910390fd5b6040518060a0016040528060006001600160a01b0316815260200160006001600160a01b031681526020016000815260200160608152602001600081525090565b6020808252825182820181905260009190848201906040850190845b8181101561175a5783516001600160a01b031683529284019291840191600101611735565b50909695505050505050565b60006020828403121561177857600080fd5b5035919050565b80356001600160a01b038116811461179657600080fd5b919050565b6000602082840312156117ad57600080fd5b6117b68261177f565b9392505050565b634e487b7160e01b600052602160045260246000fd5b8151815260208201516040820190600281106117ff57634e487b7160e01b600052602160045260246000fd5b8060208401525092915050565b6000815180845260005b8181101561183257602081850181015186830182015201611816565b506000602082860101526020601f19601f83011685010191505092915050565b60006020808301818452808551808352604092508286019150828160051b87010184880160005b838110156118ea57888303603f19018552815180516001600160a01b039081168552888201511688850152868101518785015260608082015160a082870181905291906118c88388018261180c565b6080948501519790940196909652505094870194925090860190600101611879565b509098975050505050505050565b634e487b7160e01b600052604160045260246000fd5b60008060006060848603121561192357600080fd5b61192c8461177f565b925060208401359150604084013567ffffffffffffffff8082111561195057600080fd5b818601915086601f83011261196457600080fd5b813581811115611976576119766118f8565b604051601f8201601f19908116603f0116810190838211818310171561199e5761199e6118f8565b816040528281528960208487010111156119b757600080fd5b8260208601602083013760006020848301015280955050505050509250925092565b60208082526010908201526f3737ba1030903b30b634b2103ab9b2b960811b604082015260600190565b6020808252601190820152700dcdee840c2c6e8d2ecc2e8cac840c4def607b1b604082015260600190565b838152606060208201526000611a47606083018561180c565b9050826040830152949350505050565b634e487b7160e01b600052603260045260246000fd5b634e487b7160e01b600052601160045260246000fd5b600060018201611a9557611a95611a6d565b5060010190565b8181038181111561076a5761076a611a6d565b600181811c90821680611ac357607f821691505b602082108103611ae357634e487b7160e01b600052602260045260246000fd5b50919050565b634e487b7160e01b600052601260045260246000fd5b601f821115610d7657600081815260208120601f850160051c81016020861015611b265750805b601f850160051c820191505b81811015611b4557828155600101611b32565b505050505050565b815167ffffffffffffffff811115611b6757611b676118f8565b611b7b81611b758454611aaf565b84611aff565b602080601f831160018114611bb05760008415611b985750858301515b600019600386901b1c1916600185901b178555611b45565b600085815260208120601f198616915b82811015611bdf57888601518255948401946001909101908401611bc0565b5085821015611bfd5787850151600019600388901b60f8161c191681555b5050505050600190811b01905550565b634e487b7160e01b600052603160045260246000fdfea2646970667358221220b8f1ba3f87d3c71b7f57ee104967287ab364bd8ccf30e61cb11748daae974dd364736f6c63430008110033",
  "linkReferences": {},
  "deployedLinkReferences": {}
}