{
  "contractName": "SupportDonut",
  "abi": [
    {
      "anonymous": false,
      "inputs": [
        {
          "indexed": true,
          "internalType": "address",
          "name": "from",
          "type": "address"
        },
        {
          "indexed": true,
          "internalType": "address",
          "name": "to",
          "type": "address"
        },
        {
          "indexed": false,
          "internalType": "uint256",
          "name": "amount",
          "type": "uint256"
        },
        {
          "indexed": false,
          "internalType": "uint256",
          "name": "timestamp",
          "type": "uint256"
        }
      ],
      "name": "DonutSupported",
      "type": "event"
    },
    {
      "inputs": [],
      "name": "DONUT",
      "outputs": [
        {
          "internalType": "uint256",
          "name": "",
          "type": "uint256"
        }
      ],
      "stateMutability": "view",
      "type": "function"
    }
  ],
  "bytecode": "0x608060405234801561001057600080fd5b5060b88061001f6000396000f3fe6080604052348015600f57600080fd5b506004361060285760003560e01c8063e7df8ab514602d575b600080fd5b60336047565b604051603e91906069565b60405180910390f35b660aa87bee53800081565b6000819050919050565b6063816052565b82525050565b6000602082019050607c6000830184605c565b9291505056fea26469706673582212207f4794358d65d54b841227ca78950634bfb7da41b0981b8e5f9a743ff8e1cab064736f6c63430008110033",
  "immutableReferences": {},
  "source": "// SPDX-License-Identifier: UNLICENSED\r\n\r\npragma solidity ^0.8.17;\r\n\r\ncontract SupportDonut {\r\n    uint256 public constant DONUT = 0.003 ether;\r\n\r\n    struct SupportReceipt {\r\n        address from;\r\n        address to;\r\n        uint256 amount;\r\n        string message;\r\n        uint256 timestamp;\r\n    }\r\n\r\n    SupportReceipt[] private _supportReceipts;\r\n    mapping(address => uint256[]) private _receiptIndexOfSupporter;\r\n    mapping(address => uint256[]) private _receiptIndexOfBeneficiary;\r\n\r\n    event DonutSupported(\r\n        address indexed from,\r\n        address indexed to,\r\n        uint256 amount,\r\n        uint256 timestamp\r\n    );\r\n\r\n    function _calculateBaseFee(uint256 amount) internal pure returns (uint256) {\r\n        return amount / 100;\r\n    }\r\n\r\n    function _addSupportReceipt(\r\n        address from,\r\n        address to,\r\n        uint256 amount,\r\n        string memory message\r\n    ) internal {\r\n        SupportReceipt memory newReceipt = SupportReceipt(\r\n            from,\r\n            to,\r\n            amount,\r\n            message,\r\n            block.timestamp\r\n        );\r\n\r\n        _supportReceipts.push(newReceipt);\r\n\r\n        uint256 receiptIndex = _supportReceipts.length - 1;\r\n\r\n        _receiptIndexOfSupporter[from].push(receiptIndex);\r\n        _receiptIndexOfBeneficiary[to].push(receiptIndex);\r\n    }\r\n\r\n    function _getReceiptsOfSupporter(\r\n        address supporter\r\n    ) internal view returns (SupportReceipt[] memory) {\r\n        uint256[] memory indices = _receiptIndexOfSupporter[supporter];\r\n\r\n        SupportReceipt[] memory result = new SupportReceipt[](indices.length);\r\n\r\n        for (uint256 i = 0; i < indices.length; i++) {\r\n            result[i] = _supportReceipts[indices[i]];\r\n        }\r\n\r\n        return result;\r\n    }\r\n\r\n    function _getReceiptsOfBeneficiary(\r\n        address beneficiary\r\n    ) internal view returns (SupportReceipt[] memory) {\r\n        uint256[] memory indices = _receiptIndexOfBeneficiary[beneficiary];\r\n\r\n        SupportReceipt[] memory result = new SupportReceipt[](indices.length);\r\n\r\n        for (uint256 i = 0; i < indices.length; i++) {\r\n            result[i] = _supportReceipts[indices[i]];\r\n        }\r\n\r\n        return result;\r\n    }\r\n}\r\n",
  "sourcePath": "C:\\Users\\LHH\\treat-a-donut\\src\\truffle\\contracts\\donation\\SupportDonut.sol",
  "compiler": {
    "name": "solc",
    "version": "0.8.17+commit.8df45f5f.Emscripten.clang"
  },
  "schemaVersion": "3.4.10",
  "updatedAt": "2022-12-01T09:45:18.127Z",
  "devdoc": {
    "kind": "dev",
    "methods": {},
    "version": 1
  },
  "userdoc": {
    "kind": "user",
    "methods": {},
    "version": 1
  }
}