{
  "contractName": "TreatADonut",
  "abi": [
    {
      "inputs": [],
      "stateMutability": "nonpayable",
      "type": "constructor"
    },
    {
      "inputs": [],
      "name": "BalanceDepositOverflow",
      "type": "error"
    },
    {
      "inputs": [],
      "name": "BalanceWithdrawOverflow",
      "type": "error"
    },
    {
      "inputs": [],
      "name": "BaseFeeCalculationToZero",
      "type": "error"
    },
    {
      "inputs": [],
      "name": "BaseFeeExceptionOverflow",
      "type": "error"
    },
    {
      "inputs": [],
      "name": "TotalPaymentCalculationOverflow",
      "type": "error"
    },
    {
      "inputs": [],
      "name": "UserIndexToAddressNotMatched",
      "type": "error"
    },
    {
      "anonymous": false,
      "inputs": [
        {
          "indexed": true,
          "internalType": "address",
          "name": "user",
          "type": "address"
        },
        {
          "indexed": false,
          "internalType": "uint256",
          "name": "timestamp",
          "type": "uint256"
        }
      ],
      "name": "DonutBoxActivated",
      "type": "event"
    },
    {
      "anonymous": false,
      "inputs": [
        {
          "indexed": true,
          "internalType": "address",
          "name": "user",
          "type": "address"
        },
        {
          "indexed": false,
          "internalType": "uint256",
          "name": "timestamp",
          "type": "uint256"
        }
      ],
      "name": "DonutBoxDeactivated",
      "type": "event"
    },
    {
      "anonymous": false,
      "inputs": [
        {
          "indexed": true,
          "internalType": "address",
          "name": "from",
          "type": "address"
        },
        {
          "indexed": true,
          "internalType": "address",
          "name": "to",
          "type": "address"
        },
        {
          "indexed": false,
          "internalType": "uint256",
          "name": "amount",
          "type": "uint256"
        },
        {
          "indexed": false,
          "internalType": "uint256",
          "name": "timestamp",
          "type": "uint256"
        }
      ],
      "name": "DonutSupported",
      "type": "event"
    },
    {
      "anonymous": false,
      "inputs": [
        {
          "indexed": true,
          "internalType": "address",
          "name": "previousOwner",
          "type": "address"
        },
        {
          "indexed": true,
          "internalType": "address",
          "name": "newOwner",
          "type": "address"
        }
      ],
      "name": "OwnershipTransferred",
      "type": "event"
    },
    {
      "anonymous": false,
      "inputs": [
        {
          "indexed": false,
          "internalType": "address",
          "name": "user",
          "type": "address"
        },
        {
          "indexed": false,
          "internalType": "bool",
          "name": "success",
          "type": "bool"
        },
        {
          "indexed": false,
          "internalType": "uint256",
          "name": "timestamp",
          "type": "uint256"
        }
      ],
      "name": "UserRegistered",
      "type": "event"
    },
    {
      "anonymous": false,
      "inputs": [
        {
          "indexed": false,
          "internalType": "address",
          "name": "user",
          "type": "address"
        },
        {
          "indexed": false,
          "internalType": "bool",
          "name": "success",
          "type": "bool"
        },
        {
          "indexed": false,
          "internalType": "uint256",
          "name": "timestamp",
          "type": "uint256"
        }
      ],
      "name": "UserUnregistered",
      "type": "event"
    },
    {
      "anonymous": false,
      "inputs": [
        {
          "indexed": true,
          "internalType": "address",
          "name": "user",
          "type": "address"
        },
        {
          "indexed": false,
          "internalType": "uint256",
          "name": "amount",
          "type": "uint256"
        },
        {
          "indexed": false,
          "internalType": "uint256",
          "name": "timestamp",
          "type": "uint256"
        }
      ],
      "name": "Withdrawn",
      "type": "event"
    },
    {
      "inputs": [],
      "name": "DONUT",
      "outputs": [
        {
          "internalType": "uint256",
          "name": "",
          "type": "uint256"
        }
      ],
      "stateMutability": "view",
      "type": "function",
      "constant": true
    },
    {
      "inputs": [],
      "name": "owner",
      "outputs": [
        {
          "internalType": "address",
          "name": "",
          "type": "address"
        }
      ],
      "stateMutability": "view",
      "type": "function",
      "constant": true
    },
    {
      "inputs": [
        {
          "internalType": "address",
          "name": "_newOwner",
          "type": "address"
        }
      ],
      "name": "transferOwnership",
      "outputs": [],
      "stateMutability": "nonpayable",
      "type": "function"
    },
    {
      "inputs": [],
      "name": "register",
      "outputs": [],
      "stateMutability": "nonpayable",
      "type": "function"
    },
    {
      "inputs": [],
      "name": "unregister",
      "outputs": [],
      "stateMutability": "nonpayable",
      "type": "function"
    },
    {
      "inputs": [],
      "name": "activateBox",
      "outputs": [],
      "stateMutability": "nonpayable",
      "type": "function"
    },
    {
      "inputs": [],
      "name": "deactivateBox",
      "outputs": [],
      "stateMutability": "nonpayable",
      "type": "function"
    },
    {
      "inputs": [
        {
          "internalType": "uint256",
          "name": "_amount",
          "type": "uint256"
        }
      ],
      "name": "withdraw",
      "outputs": [],
      "stateMutability": "nonpayable",
      "type": "function"
    },
    {
      "inputs": [
        {
          "internalType": "address",
          "name": "_to",
          "type": "address"
        },
        {
          "internalType": "uint256",
          "name": "_amount",
          "type": "uint256"
        },
        {
          "internalType": "string",
          "name": "_message",
          "type": "string"
        }
      ],
      "name": "supportDonut",
      "outputs": [],
      "stateMutability": "payable",
      "type": "function",
      "payable": true
    },
    {
      "inputs": [
        {
          "internalType": "address",
          "name": "_supporter",
          "type": "address"
        }
      ],
      "name": "getReceiptsOfSupporter",
      "outputs": [
        {
          "components": [
            {
              "internalType": "address",
              "name": "from",
              "type": "address"
            },
            {
              "internalType": "address",
              "name": "to",
              "type": "address"
            },
            {
              "internalType": "uint256",
              "name": "amount",
              "type": "uint256"
            },
            {
              "internalType": "string",
              "name": "message",
              "type": "string"
            },
            {
              "internalType": "uint256",
              "name": "timestamp",
              "type": "uint256"
            }
          ],
          "internalType": "struct Support.SupportReceipt[]",
          "name": "",
          "type": "tuple[]"
        }
      ],
      "stateMutability": "view",
      "type": "function",
      "constant": true
    },
    {
      "inputs": [
        {
          "internalType": "address",
          "name": "_beneficiary",
          "type": "address"
        }
      ],
      "name": "getReceiptsOfBeneficiary",
      "outputs": [
        {
          "components": [
            {
              "internalType": "address",
              "name": "from",
              "type": "address"
            },
            {
              "internalType": "address",
              "name": "to",
              "type": "address"
            },
            {
              "internalType": "uint256",
              "name": "amount",
              "type": "uint256"
            },
            {
              "internalType": "string",
              "name": "message",
              "type": "string"
            },
            {
              "internalType": "uint256",
              "name": "timestamp",
              "type": "uint256"
            }
          ],
          "internalType": "struct Support.SupportReceipt[]",
          "name": "",
          "type": "tuple[]"
        }
      ],
      "stateMutability": "view",
      "type": "function",
      "constant": true
    },
    {
      "inputs": [
        {
          "internalType": "address",
          "name": "_user",
          "type": "address"
        }
      ],
      "name": "isUser",
      "outputs": [
        {
          "internalType": "bool",
          "name": "",
          "type": "bool"
        }
      ],
      "stateMutability": "view",
      "type": "function",
      "constant": true
    },
    {
      "inputs": [],
      "name": "getUsers",
      "outputs": [
        {
          "internalType": "address[]",
          "name": "",
          "type": "address[]"
        }
      ],
      "stateMutability": "view",
      "type": "function",
      "constant": true
    },
    {
      "inputs": [
        {
          "internalType": "address",
          "name": "_user",
          "type": "address"
        }
      ],
      "name": "boxOf",
      "outputs": [
        {
          "components": [
            {
              "internalType": "uint256",
              "name": "balance",
              "type": "uint256"
            },
            {
              "internalType": "enum DonutBox.BoxState",
              "name": "state",
              "type": "uint8"
            }
          ],
          "internalType": "struct DonutBox.Box",
          "name": "",
          "type": "tuple"
        }
      ],
      "stateMutability": "view",
      "type": "function",
      "constant": true
    },
    {
      "inputs": [],
      "name": "destroyContract",
      "outputs": [],
      "stateMutability": "nonpayable",
      "type": "function"
    }
  ],
  "bytecode": "0x60806040523480156200001157600080fd5b50336000806101000a81548173ffffffffffffffffffffffffffffffffffffffff021916908373ffffffffffffffffffffffffffffffffffffffff16021790555060008054906101000a900473ffffffffffffffffffffffffffffffffffffffff1673ffffffffffffffffffffffffffffffffffffffff16600073ffffffffffffffffffffffffffffffffffffffff167f8be0079c531659141344cd1fd0a4f28419497f9722a3daafe3b4186f6b6457e060405160405180910390a3620000dd620000e360201b60201c565b62000659565b6000339050620000f9816200020660201b60201c565b156200013c576040517f08c379a00000000000000000000000000000000000000000000000000000000081526004016200013390620004c7565b60405180910390fd5b6200014d816200025c60201b60201c565b7f573d34be45ff57aee55b8a09425a3072980c04a46dbad91fb3569efb38b006a581600142604051620001839392919062000566565b60405180910390a16200019c816200037060201b60201c565b6200020357620001b281620003f560201b60201c565b8073ffffffffffffffffffffffffffffffffffffffff167f3aa9434b0ce05599c0933372974baba95f85f26d1ee581c4b23eba20727ca4e142604051620001fa9190620005a3565b60405180910390a25b50565b6000600260008373ffffffffffffffffffffffffffffffffffffffff1673ffffffffffffffffffffffffffffffffffffffff16815260200190815260200160002060009054906101000a900460ff169050919050565b6001600260008373ffffffffffffffffffffffffffffffffffffffff1673ffffffffffffffffffffffffffffffffffffffff16815260200190815260200160002060006101000a81548160ff0219169083151502179055506001819080600181540180825580915050600190039060005260206000200160009091909190916101000a81548173ffffffffffffffffffffffffffffffffffffffff021916908373ffffffffffffffffffffffffffffffffffffffff160217905550600180805490506200032a9190620005ef565b600360008373ffffffffffffffffffffffffffffffffffffffff1673ffffffffffffffffffffffffffffffffffffffff1681526020019081526020016000208190555050565b60006001808111156200038857620003876200062a565b5b600460008473ffffffffffffffffffffffffffffffffffffffff1673ffffffffffffffffffffffffffffffffffffffff16815260200190815260200160002060010160009054906101000a900460ff166001811115620003ed57620003ec6200062a565b5b149050919050565b6001600460008373ffffffffffffffffffffffffffffffffffffffff1673ffffffffffffffffffffffffffffffffffffffff16815260200190815260200160002060010160006101000a81548160ff021916908360018111156200045e576200045d6200062a565b5b021790555050565b600082825260208201905092915050565b7f79657420612076616c6964207573657200000000000000000000000000000000600082015250565b6000620004af60108362000466565b9150620004bc8262000477565b602082019050919050565b60006020820190508181036000830152620004e281620004a0565b9050919050565b600073ffffffffffffffffffffffffffffffffffffffff82169050919050565b60006200051682620004e9565b9050919050565b620005288162000509565b82525050565b60008115159050919050565b62000545816200052e565b82525050565b6000819050919050565b62000560816200054b565b82525050565b60006060820190506200057d60008301866200051d565b6200058c60208301856200053a565b6200059b604083018462000555565b949350505050565b6000602082019050620005ba600083018462000555565b92915050565b7f4e487b7100000000000000000000000000000000000000000000000000000000600052601160045260246000fd5b6000620005fc826200054b565b915062000609836200054b565b9250828203905081811115620006245762000623620005c0565b5b92915050565b7f4e487b7100000000000000000000000000000000000000000000000000000000600052602160045260246000fd5b6131a480620006696000396000f3fe6080604052600436106100e75760003560e01c8063472129731161008a578063c9f2df5e11610059578063c9f2df5e146102bb578063e79a198f146102d7578063e7df8ab5146102ee578063f2fde38b14610319576100e7565b806347212973146101d957806383b99a98146102165780638da5cb5b14610253578063c097ff7c1461027e576100e7565b80632e1a7d4d116100c65780632e1a7d4d146101455780633622e9021461016e57806340410712146101855780634209fff11461019c576100e7565b8062ce8e3e146100ec578063092a5cce146101175780631aa3a0081461012e575b600080fd5b3480156100f857600080fd5b50610101610342565b60405161010e9190612223565b60405180910390f35b34801561012357600080fd5b5061012c610351565b005b34801561013a57600080fd5b50610143610424565b005b34801561015157600080fd5b5061016c6004803603810190610167919061228f565b61051f565b005b34801561017a57600080fd5b50610183610724565b005b34801561019157600080fd5b5061019a610811565b005b3480156101a857600080fd5b506101c360048036038101906101be91906122e8565b6108fd565b6040516101d09190612330565b60405180910390f35b3480156101e557600080fd5b5061020060048036038101906101fb91906122e8565b61090f565b60405161020d9190612400565b60405180910390f35b34801561022257600080fd5b5061023d600480360381019061023891906122e8565b610927565b60405161024a91906125e3565b60405180910390f35b34801561025f57600080fd5b50610268610939565b6040516102759190612614565b60405180910390f35b34801561028a57600080fd5b506102a560048036038101906102a091906122e8565b610962565b6040516102b291906125e3565b60405180910390f35b6102d560048036038101906102d09190612764565b610974565b005b3480156102e357600080fd5b506102ec610b1e565b005b3480156102fa57600080fd5b50610303610c63565b60405161031091906127e2565b60405180910390f35b34801561032557600080fd5b50610340600480360381019061033b91906122e8565b610c6e565b005b606061034c610d52565b905090565b610359610de0565b610398576040517f08c379a000000000000000000000000000000000000000000000000000000000815260040161038f9061285a565b60405180910390fd5b600860009054906101000a900460ff16156103e8576040517f08c379a00000000000000000000000000000000000000000000000000000000081526004016103df906128c6565b60405180910390fd5b6001600860006101000a81548160ff02191690831515021790555061040b610e37565b3073ffffffffffffffffffffffffffffffffffffffff16ff5b600033905061043281610e89565b15610472576040517f08c379a000000000000000000000000000000000000000000000000000000000815260040161046990612932565b60405180910390fd5b61047b81610edf565b7f573d34be45ff57aee55b8a09425a3072980c04a46dbad91fb3569efb38b006a5816001426040516104af93929190612952565b60405180910390a16104c081610ff1565b61051c576104cd81611070565b8073ffffffffffffffffffffffffffffffffffffffff167f3aa9434b0ce05599c0933372974baba95f85f26d1ee581c4b23eba20727ca4e14260405161051391906127e2565b60405180910390a25b50565b3361052981610e89565b610568576040517f08c379a000000000000000000000000000000000000000000000000000000000815260040161055f906129d5565b60405180910390fd5b3361057281610ff1565b6105b1576040517f08c379a00000000000000000000000000000000000000000000000000000000081526004016105a890612a41565b60405180910390fd5b600860009054906101000a900460ff1615610601576040517f08c379a00000000000000000000000000000000000000000000000000000000081526004016105f8906128c6565b60405180910390fd5b6001600860006101000a81548160ff0219169083151502179055506000831161065f576040517f08c379a000000000000000000000000000000000000000000000000000000000815260040161065690612aad565b60405180910390fd5b82610669336110de565b10156106aa576040517f08c379a00000000000000000000000000000000000000000000000000000000081526004016106a190612b19565b60405180910390fd5b6106b4338461112a565b3373ffffffffffffffffffffffffffffffffffffffff167f92ccf450a286a957af52509bc1c9939d1a6a481783e142e41e2499f0bb66ebc684426040516106fc929190612b39565b60405180910390a26000600860006101000a81548160ff021916908315150217905550505050565b3361072e81610e89565b61076d576040517f08c379a0000000000000000000000000000000000000000000000000000000008152600401610764906129d5565b60405180910390fd5b3361077781610ff1565b6107b6576040517f08c379a00000000000000000000000000000000000000000000000000000000081526004016107ad90612a41565b60405180910390fd5b6107bf336111ef565b3373ffffffffffffffffffffffffffffffffffffffff167faba59751917a4d191bd12ce3be6afef36ee64eb782e974048ea3dfb53bc7a37b4260405161080591906127e2565b60405180910390a25050565b3361081b81610e89565b61085a576040517f08c379a0000000000000000000000000000000000000000000000000000000008152600401610851906129d5565b60405180910390fd5b61086333610ff1565b156108a3576040517f08c379a000000000000000000000000000000000000000000000000000000000815260040161089a90612bae565b60405180910390fd5b6108ac33611070565b3373ffffffffffffffffffffffffffffffffffffffff167f3aa9434b0ce05599c0933372974baba95f85f26d1ee581c4b23eba20727ca4e1426040516108f291906127e2565b60405180910390a250565b600061090882610e89565b9050919050565b6109176120ac565b6109208261125d565b9050919050565b6060610932826112fb565b9050919050565b60008060009054906101000a900473ffffffffffffffffffffffffffffffffffffffff16905090565b606061096d826115c9565b9050919050565b8261097e81610e89565b6109bd576040517f08c379a00000000000000000000000000000000000000000000000000000000081526004016109b4906129d5565b60405180910390fd5b836109c781610ff1565b610a06576040517f08c379a00000000000000000000000000000000000000000000000000000000081526004016109fd90612a41565b60405180910390fd5b60008411610a49576040517f08c379a0000000000000000000000000000000000000000000000000000000008152600401610a4090612aad565b60405180910390fd5b6000610a5485611897565b905080341015610a99576040517f08c379a0000000000000000000000000000000000000000000000000000000008152600401610a9090612c1a565b60405180910390fd5b610aa386826118ff565b610aaf3387878761195a565b8573ffffffffffffffffffffffffffffffffffffffff163373ffffffffffffffffffffffffffffffffffffffff167f0c3a2bbc3fac6e9b20125b124fbdd06b04f99675516c5f0968f635e8cf59cb5c8742604051610b0e929190612b39565b60405180910390a3505050505050565b33610b2881610e89565b610b67576040517f08c379a0000000000000000000000000000000000000000000000000000000008152600401610b5e906129d5565b60405180910390fd5b610b6f610de0565b15610baf576040517f08c379a0000000000000000000000000000000000000000000000000000000008152600401610ba690612c86565b60405180910390fd5b6000339050610bbd81611b81565b7faf6e6dae2857ce22679a0c9a0278698d056ccc0a50eafd56c77e74b775b360f381600142604051610bf193929190612952565b60405180910390a1610c0281610ff1565b15610c5f57610c10816111ef565b8073ffffffffffffffffffffffffffffffffffffffff167faba59751917a4d191bd12ce3be6afef36ee64eb782e974048ea3dfb53bc7a37b42604051610c5691906127e2565b60405180910390a25b5050565b660aa87bee53800081565b610c76610de0565b610cb5576040517f08c379a0000000000000000000000000000000000000000000000000000000008152600401610cac9061285a565b60405180910390fd5b806000806101000a81548173ffffffffffffffffffffffffffffffffffffffff021916908373ffffffffffffffffffffffffffffffffffffffff1602179055508073ffffffffffffffffffffffffffffffffffffffff163373ffffffffffffffffffffffffffffffffffffffff167f8be0079c531659141344cd1fd0a4f28419497f9722a3daafe3b4186f6b6457e060405160405180910390a350565b60606001805480602002602001604051908101604052809291908181526020018280548015610dd657602002820191906000526020600020905b8160009054906101000a900473ffffffffffffffffffffffffffffffffffffffff1673ffffffffffffffffffffffffffffffffffffffff1681526020019060010190808311610d8c575b5050505050905090565b60008060009054906101000a900473ffffffffffffffffffffffffffffffffffffffff1673ffffffffffffffffffffffffffffffffffffffff163373ffffffffffffffffffffffffffffffffffffffff1614905090565b6000610e41610d52565b905060005b8151811015610e8557610e72828281518110610e6557610e64612ca6565b5b6020026020010151611e89565b8080610e7d90612d04565b915050610e46565b5050565b6000600260008373ffffffffffffffffffffffffffffffffffffffff1673ffffffffffffffffffffffffffffffffffffffff16815260200190815260200160002060009054906101000a900460ff169050919050565b6001600260008373ffffffffffffffffffffffffffffffffffffffff1673ffffffffffffffffffffffffffffffffffffffff16815260200190815260200160002060006101000a81548160ff0219169083151502179055506001819080600181540180825580915050600190039060005260206000200160009091909190916101000a81548173ffffffffffffffffffffffffffffffffffffffff021916908373ffffffffffffffffffffffffffffffffffffffff16021790555060018080549050610fab9190612d4c565b600360008373ffffffffffffffffffffffffffffffffffffffff1673ffffffffffffffffffffffffffffffffffffffff1681526020019081526020016000208190555050565b60006001808111156110065761100561235a565b5b600460008473ffffffffffffffffffffffffffffffffffffffff1673ffffffffffffffffffffffffffffffffffffffff16815260200190815260200160002060010160009054906101000a900460ff1660018111156110685761106761235a565b5b149050919050565b6001600460008373ffffffffffffffffffffffffffffffffffffffff1673ffffffffffffffffffffffffffffffffffffffff16815260200190815260200160002060010160006101000a81548160ff021916908360018111156110d6576110d561235a565b5b021790555050565b6000600460008373ffffffffffffffffffffffffffffffffffffffff1673ffffffffffffffffffffffffffffffffffffffff168152602001908152602001600020600001549050919050565b6111348282611eae565b60008273ffffffffffffffffffffffffffffffffffffffff168260405161115a90612db1565b60006040518083038185875af1925050503d8060008114611197576040519150601f19603f3d011682016040523d82523d6000602084013e61119c565b606091505b50509050806111ea576111af8383611f7d565b6040517f08c379a00000000000000000000000000000000000000000000000000000000081526004016111e190612e12565b60405180910390fd5b505050565b6000600460008373ffffffffffffffffffffffffffffffffffffffff1673ffffffffffffffffffffffffffffffffffffffff16815260200190815260200160002060010160006101000a81548160ff021916908360018111156112555761125461235a565b5b021790555050565b6112656120ac565b600460008373ffffffffffffffffffffffffffffffffffffffff1673ffffffffffffffffffffffffffffffffffffffff168152602001908152602001600020604051806040016040529081600082015481526020016001820160009054906101000a900460ff1660018111156112de576112dd61235a565b5b60018111156112f0576112ef61235a565b5b815250509050919050565b60606000600660008473ffffffffffffffffffffffffffffffffffffffff1673ffffffffffffffffffffffffffffffffffffffff16815260200190815260200160002080548060200260200160405190810160405280929190818152602001828054801561138857602002820191906000526020600020905b815481526020019060010190808311611374575b505050505090506000815167ffffffffffffffff8111156113ac576113ab612639565b5b6040519080825280602002602001820160405280156113e557816020015b6113d26120d8565b8152602001906001900390816113ca5790505b50905060005b82518110156115be57600583828151811061140957611408612ca6565b5b60200260200101518154811061142257611421612ca6565b5b90600052602060002090600502016040518060a00160405290816000820160009054906101000a900473ffffffffffffffffffffffffffffffffffffffff1673ffffffffffffffffffffffffffffffffffffffff1673ffffffffffffffffffffffffffffffffffffffff1681526020016001820160009054906101000a900473ffffffffffffffffffffffffffffffffffffffff1673ffffffffffffffffffffffffffffffffffffffff1673ffffffffffffffffffffffffffffffffffffffff1681526020016002820154815260200160038201805461150190612e61565b80601f016020809104026020016040519081016040528092919081815260200182805461152d90612e61565b801561157a5780601f1061154f5761010080835404028352916020019161157a565b820191906000526020600020905b81548152906001019060200180831161155d57829003601f168201915b505050505081526020016004820154815250508282815181106115a05761159f612ca6565b5b602002602001018190525080806115b690612d04565b9150506113eb565b508092505050919050565b60606000600760008473ffffffffffffffffffffffffffffffffffffffff1673ffffffffffffffffffffffffffffffffffffffff16815260200190815260200160002080548060200260200160405190810160405280929190818152602001828054801561165657602002820191906000526020600020905b815481526020019060010190808311611642575b505050505090506000815167ffffffffffffffff81111561167a57611679612639565b5b6040519080825280602002602001820160405280156116b357816020015b6116a06120d8565b8152602001906001900390816116985790505b50905060005b825181101561188c5760058382815181106116d7576116d6612ca6565b5b6020026020010151815481106116f0576116ef612ca6565b5b90600052602060002090600502016040518060a00160405290816000820160009054906101000a900473ffffffffffffffffffffffffffffffffffffffff1673ffffffffffffffffffffffffffffffffffffffff1673ffffffffffffffffffffffffffffffffffffffff1681526020016001820160009054906101000a900473ffffffffffffffffffffffffffffffffffffffff1673ffffffffffffffffffffffffffffffffffffffff1673ffffffffffffffffffffffffffffffffffffffff168152602001600282015481526020016003820180546117cf90612e61565b80601f01602080910402602001604051908101604052809291908181526020018280546117fb90612e61565b80156118485780601f1061181d57610100808354040283529160200191611848565b820191906000526020600020905b81548152906001019060200180831161182b57829003601f168201915b5050505050815260200160048201548152505082828151811061186e5761186d612ca6565b5b6020026020010181905250808061188490612d04565b9150506116b9565b508092505050919050565b60008082660aa87bee538000029050660aa87bee5380008382816118be576118bd612e92565b5b04146118f6576040517fee0d585a00000000000000000000000000000000000000000000000000000000815260040160405180910390fd5b80915050919050565b600061190a82612052565b905081811115611946576040517fd3bbb1f300000000000000000000000000000000000000000000000000000000815260040160405180910390fd5b80820391506119558383611f7d565b505050565b60006040518060a001604052808673ffffffffffffffffffffffffffffffffffffffff1681526020018573ffffffffffffffffffffffffffffffffffffffff168152602001848152602001838152602001428152509050600581908060018154018082558091505060019003906000526020600020906005020160009091909190915060008201518160000160006101000a81548173ffffffffffffffffffffffffffffffffffffffff021916908373ffffffffffffffffffffffffffffffffffffffff16021790555060208201518160010160006101000a81548173ffffffffffffffffffffffffffffffffffffffff021916908373ffffffffffffffffffffffffffffffffffffffff160217905550604082015181600201556060820151816003019081611a8a919061306d565b5060808201518160040155505060006001600580549050611aab9190612d4c565b9050600660008773ffffffffffffffffffffffffffffffffffffffff1673ffffffffffffffffffffffffffffffffffffffff168152602001908152602001600020819080600181540180825580915050600190039060005260206000200160009091909190915055600760008673ffffffffffffffffffffffffffffffffffffffff1673ffffffffffffffffffffffffffffffffffffffff168152602001908152602001600020819080600181540180825580915050600190039060005260206000200160009091909190915055505050505050565b6000600360008373ffffffffffffffffffffffffffffffffffffffff1673ffffffffffffffffffffffffffffffffffffffff1681526020019081526020016000205490508173ffffffffffffffffffffffffffffffffffffffff1660018281548110611bf057611bef612ca6565b5b9060005260206000200160009054906101000a900473ffffffffffffffffffffffffffffffffffffffff1673ffffffffffffffffffffffffffffffffffffffff1614611c68576040517f1d08bdc600000000000000000000000000000000000000000000000000000000815260040160405180910390fd5b6000600260008473ffffffffffffffffffffffffffffffffffffffff1673ffffffffffffffffffffffffffffffffffffffff16815260200190815260200160002060006101000a81548160ff0219169083151502179055506001808080549050611cd29190612d4c565b81548110611ce357611ce2612ca6565b5b9060005260206000200160009054906101000a900473ffffffffffffffffffffffffffffffffffffffff1660018281548110611d2257611d21612ca6565b5b9060005260206000200160006101000a81548173ffffffffffffffffffffffffffffffffffffffff021916908373ffffffffffffffffffffffffffffffffffffffff16021790555080600360006001808080549050611d819190612d4c565b81548110611d9257611d91612ca6565b5b9060005260206000200160009054906101000a900473ffffffffffffffffffffffffffffffffffffffff1673ffffffffffffffffffffffffffffffffffffffff1673ffffffffffffffffffffffffffffffffffffffff168152602001908152602001600020819055506001805480611e0d57611e0c61313f565b5b6001900381819060005260206000200160006101000a81549073ffffffffffffffffffffffffffffffffffffffff02191690559055600360008373ffffffffffffffffffffffffffffffffffffffff1673ffffffffffffffffffffffffffffffffffffffff168152602001908152602001600020600090555050565b6000611e94826110de565b90506000811115611eaa57611ea9828261112a565b5b5050565b6000600460008473ffffffffffffffffffffffffffffffffffffffff1673ffffffffffffffffffffffffffffffffffffffff16815260200190815260200160002060000154905080821115611f2f576040517f292949b200000000000000000000000000000000000000000000000000000000815260040160405180910390fd5b818103600460008573ffffffffffffffffffffffffffffffffffffffff1673ffffffffffffffffffffffffffffffffffffffff16815260200190815260200160002060000181905550505050565b6000600460008473ffffffffffffffffffffffffffffffffffffffff1673ffffffffffffffffffffffffffffffffffffffff1681526020019081526020016000206000015490506000828201905081811015612005576040517f4ee055cb00000000000000000000000000000000000000000000000000000000815260040160405180910390fd5b80600460008673ffffffffffffffffffffffffffffffffffffffff1673ffffffffffffffffffffffffffffffffffffffff1681526020019081526020016000206000018190555050505050565b6000806064838161206657612065612e92565b5b049050600081036120a3576040517f9007be6800000000000000000000000000000000000000000000000000000000815260040160405180910390fd5b80915050919050565b604051806040016040528060008152602001600060018111156120d2576120d161235a565b5b81525090565b6040518060a00160405280600073ffffffffffffffffffffffffffffffffffffffff168152602001600073ffffffffffffffffffffffffffffffffffffffff1681526020016000815260200160608152602001600081525090565b600081519050919050565b600082825260208201905092915050565b6000819050602082019050919050565b600073ffffffffffffffffffffffffffffffffffffffff82169050919050565b600061218a8261215f565b9050919050565b61219a8161217f565b82525050565b60006121ac8383612191565b60208301905092915050565b6000602082019050919050565b60006121d082612133565b6121da818561213e565b93506121e58361214f565b8060005b838110156122165781516121fd88826121a0565b9750612208836121b8565b9250506001810190506121e9565b5085935050505092915050565b6000602082019050818103600083015261223d81846121c5565b905092915050565b6000604051905090565b600080fd5b600080fd5b6000819050919050565b61226c81612259565b811461227757600080fd5b50565b60008135905061228981612263565b92915050565b6000602082840312156122a5576122a461224f565b5b60006122b38482850161227a565b91505092915050565b6122c58161217f565b81146122d057600080fd5b50565b6000813590506122e2816122bc565b92915050565b6000602082840312156122fe576122fd61224f565b5b600061230c848285016122d3565b91505092915050565b60008115159050919050565b61232a81612315565b82525050565b60006020820190506123456000830184612321565b92915050565b61235481612259565b82525050565b7f4e487b7100000000000000000000000000000000000000000000000000000000600052602160045260246000fd5b6002811061239a5761239961235a565b5b50565b60008190506123ab82612389565b919050565b60006123bb8261239d565b9050919050565b6123cb816123b0565b82525050565b6040820160008201516123e7600085018261234b565b5060208201516123fa60208501826123c2565b50505050565b600060408201905061241560008301846123d1565b92915050565b600081519050919050565b600082825260208201905092915050565b6000819050602082019050919050565b600081519050919050565b600082825260208201905092915050565b60005b83811015612481578082015181840152602081019050612466565b60008484015250505050565b6000601f19601f8301169050919050565b60006124a982612447565b6124b38185612452565b93506124c3818560208601612463565b6124cc8161248d565b840191505092915050565b600060a0830160008301516124ef6000860182612191565b5060208301516125026020860182612191565b506040830151612515604086018261234b565b506060830151848203606086015261252d828261249e565b9150506080830151612542608086018261234b565b508091505092915050565b600061255983836124d7565b905092915050565b6000602082019050919050565b60006125798261241b565b6125838185612426565b93508360208202850161259585612437565b8060005b858110156125d157848403895281516125b2858261254d565b94506125bd83612561565b925060208a01995050600181019050612599565b50829750879550505050505092915050565b600060208201905081810360008301526125fd818461256e565b905092915050565b61260e8161217f565b82525050565b60006020820190506126296000830184612605565b92915050565b600080fd5b600080fd5b7f4e487b7100000000000000000000000000000000000000000000000000000000600052604160045260246000fd5b6126718261248d565b810181811067ffffffffffffffff821117156126905761268f612639565b5b80604052505050565b60006126a3612245565b90506126af8282612668565b919050565b600067ffffffffffffffff8211156126cf576126ce612639565b5b6126d88261248d565b9050602081019050919050565b82818337600083830152505050565b6000612707612702846126b4565b612699565b90508281526020810184848401111561272357612722612634565b5b61272e8482856126e5565b509392505050565b600082601f83011261274b5761274a61262f565b5b813561275b8482602086016126f4565b91505092915050565b60008060006060848603121561277d5761277c61224f565b5b600061278b868287016122d3565b935050602061279c8682870161227a565b925050604084013567ffffffffffffffff8111156127bd576127bc612254565b5b6127c986828701612736565b9150509250925092565b6127dc81612259565b82525050565b60006020820190506127f760008301846127d3565b92915050565b600082825260208201905092915050565b7f6f6e6c7920616c6c6f77656420666f72206f776e657200000000000000000000600082015250565b60006128446016836127fd565b915061284f8261280e565b602082019050919050565b6000602082019050818103600083015261287381612837565b9050919050565b7f7265656e7472656e637920646574656374656400000000000000000000000000600082015250565b60006128b06013836127fd565b91506128bb8261287a565b602082019050919050565b600060208201905081810360008301526128df816128a3565b9050919050565b7f79657420612076616c6964207573657200000000000000000000000000000000600082015250565b600061291c6010836127fd565b9150612927826128e6565b602082019050919050565b6000602082019050818103600083015261294b8161290f565b9050919050565b60006060820190506129676000830186612605565b6129746020830185612321565b61298160408301846127d3565b949350505050565b7f6e6f7420612076616c6964207573657200000000000000000000000000000000600082015250565b60006129bf6010836127fd565b91506129ca82612989565b602082019050919050565b600060208201905081810360008301526129ee816129b2565b9050919050565b7f6e6f742061637469766174656420626f78000000000000000000000000000000600082015250565b6000612a2b6011836127fd565b9150612a36826129f5565b602082019050919050565b60006020820190508181036000830152612a5a81612a1e565b9050919050565b7f7a65726f20616d6f756e74206e6f7420616c6c6f776564000000000000000000600082015250565b6000612a976017836127fd565b9150612aa282612a61565b602082019050919050565b60006020820190508181036000830152612ac681612a8a565b9050919050565b7f6e6f7420656e6f7567682062616c616e63650000000000000000000000000000600082015250565b6000612b036012836127fd565b9150612b0e82612acd565b602082019050919050565b60006020820190508181036000830152612b3281612af6565b9050919050565b6000604082019050612b4e60008301856127d3565b612b5b60208301846127d3565b9392505050565b7f79657420612061637469766174656420626f7800000000000000000000000000600082015250565b6000612b986013836127fd565b9150612ba382612b62565b602082019050919050565b60006020820190508181036000830152612bc781612b8b565b9050919050565b7f6e6f7420656e6f756768207061796d656e740000000000000000000000000000600082015250565b6000612c046012836127fd565b9150612c0f82612bce565b602082019050919050565b60006020820190508181036000830152612c3381612bf7565b9050919050565b7f6e6f7420616c6c6f77656420666f72206f776e65720000000000000000000000600082015250565b6000612c706015836127fd565b9150612c7b82612c3a565b602082019050919050565b60006020820190508181036000830152612c9f81612c63565b9050919050565b7f4e487b7100000000000000000000000000000000000000000000000000000000600052603260045260246000fd5b7f4e487b7100000000000000000000000000000000000000000000000000000000600052601160045260246000fd5b6000612d0f82612259565b91507fffffffffffffffffffffffffffffffffffffffffffffffffffffffffffffffff8203612d4157612d40612cd5565b5b600182019050919050565b6000612d5782612259565b9150612d6283612259565b9250828203905081811115612d7a57612d79612cd5565b5b92915050565b600081905092915050565b50565b6000612d9b600083612d80565b9150612da682612d8b565b600082019050919050565b6000612dbc82612d8e565b9150819050919050565b7f6661696c656420746f2077697468647261772062616c616e6365000000000000600082015250565b6000612dfc601a836127fd565b9150612e0782612dc6565b602082019050919050565b60006020820190508181036000830152612e2b81612def565b9050919050565b7f4e487b7100000000000000000000000000000000000000000000000000000000600052602260045260246000fd5b60006002820490506001821680612e7957607f821691505b602082108103612e8c57612e8b612e32565b5b50919050565b7f4e487b7100000000000000000000000000000000000000000000000000000000600052601260045260246000fd5b60008190508160005260206000209050919050565b60006020601f8301049050919050565b600082821b905092915050565b600060088302612f237fffffffffffffffffffffffffffffffffffffffffffffffffffffffffffffffff82612ee6565b612f2d8683612ee6565b95508019841693508086168417925050509392505050565b6000819050919050565b6000612f6a612f65612f6084612259565b612f45565b612259565b9050919050565b6000819050919050565b612f8483612f4f565b612f98612f9082612f71565b848454612ef3565b825550505050565b600090565b612fad612fa0565b612fb8818484612f7b565b505050565b5b81811015612fdc57612fd1600082612fa5565b600181019050612fbe565b5050565b601f82111561302157612ff281612ec1565b612ffb84612ed6565b8101602085101561300a578190505b61301e61301685612ed6565b830182612fbd565b50505b505050565b600082821c905092915050565b600061304460001984600802613026565b1980831691505092915050565b600061305d8383613033565b9150826002028217905092915050565b61307682612447565b67ffffffffffffffff81111561308f5761308e612639565b5b6130998254612e61565b6130a4828285612fe0565b600060209050601f8311600181146130d757600084156130c5578287015190505b6130cf8582613051565b865550613137565b601f1984166130e586612ec1565b60005b8281101561310d578489015182556001820191506020850194506020810190506130e8565b8683101561312a5784890151613126601f891682613033565b8355505b6001600288020188555050505b505050505050565b7f4e487b7100000000000000000000000000000000000000000000000000000000600052603160045260246000fdfea264697066735822122051e3d8da5293f21b17a5df86aa75e57aca88fbaf6c7b54dfdbe000ecc0e97f7364736f6c63430008110033",
  "immutableReferences": {},
  "source": "// SPDX-License-Identifier: UNLICENSED\r\n\r\npragma solidity ^0.8.17;\r\n\r\nimport \"./auth/Ownable.sol\";\r\nimport \"./DonutConnector.sol\";\r\nimport \"./utils/ReentrancyGuard.sol\";\r\n\r\ncontract TreatADonut is Ownable, DonutConnector, ReentrancyGuard {\r\n    constructor() Ownable() {\r\n        register();\r\n    }\r\n\r\n    function register() public {\r\n        address newUser = msg.sender;\r\n\r\n        require(!_isUser(newUser), \"yet a valid user\");\r\n        _register(newUser);\r\n\r\n        emit UserRegistered(newUser, true, block.timestamp);\r\n\r\n        if (!_isBoxActivated(newUser)) {\r\n            _activateBox(newUser);\r\n\r\n            emit DonutBoxActivated(newUser, block.timestamp);\r\n        }\r\n    }\r\n\r\n    function unregister() external onlyUser(msg.sender) {\r\n        require(!_isOwner(), \"not allowed for owner\");\r\n\r\n        address userToDelete = msg.sender;\r\n\r\n        _unregister(userToDelete);\r\n\r\n        emit UserUnregistered(userToDelete, true, block.timestamp);\r\n\r\n        if (_isBoxActivated(userToDelete)) {\r\n            _deactivateBox(userToDelete);\r\n\r\n            emit DonutBoxDeactivated(userToDelete, block.timestamp);\r\n        }\r\n    }\r\n\r\n    function activateBox() external onlyUser(msg.sender) {\r\n        require(!_isBoxActivated(msg.sender), \"yet a activated box\");\r\n        _activateBox(msg.sender);\r\n\r\n        emit DonutBoxActivated(msg.sender, block.timestamp);\r\n    }\r\n\r\n    function deactivateBox()\r\n        external\r\n        onlyUser(msg.sender)\r\n        onlyActivatedBox(msg.sender)\r\n    {\r\n        _deactivateBox(msg.sender);\r\n\r\n        emit DonutBoxDeactivated(msg.sender, block.timestamp);\r\n    }\r\n\r\n    function withdraw(\r\n        uint256 _amount\r\n    ) external onlyUser(msg.sender) onlyActivatedBox(msg.sender) lock {\r\n        require(_amount > 0, \"zero amount not allowed\");\r\n        require(_balanceOf(msg.sender) >= _amount, \"not enough balance\");\r\n\r\n        _withdraw(msg.sender, _amount);\r\n\r\n        emit Withdrawn(msg.sender, _amount, block.timestamp);\r\n    }\r\n\r\n    function supportDonut(\r\n        address _to,\r\n        uint256 _amount,\r\n        string memory _message\r\n    ) external payable onlyUser(_to) onlyActivatedBox(_to) {\r\n        require(_amount > 0, \"zero amount not allowed\");\r\n\r\n        uint256 totalPayment = _calculateTotalPayment(_amount);\r\n        require(msg.value >= totalPayment, \"not enough payment\");\r\n\r\n        _transferExceptFee(_to, totalPayment);\r\n        _addSupportReceipt(msg.sender, _to, _amount, _message);\r\n\r\n        emit DonutSupported(msg.sender, _to, _amount, block.timestamp);\r\n    }\r\n\r\n    function getReceiptsOfSupporter(\r\n        address _supporter\r\n    ) external view returns (SupportReceipt[] memory) {\r\n        return _getReceiptsOfSupporter(_supporter);\r\n    }\r\n\r\n    function getReceiptsOfBeneficiary(\r\n        address _beneficiary\r\n    ) external view returns (SupportReceipt[] memory) {\r\n        return _getReceiptsOfBeneficiary(_beneficiary);\r\n    }\r\n\r\n    function isUser(address _user) external view returns (bool) {\r\n        return _isUser(_user);\r\n    }\r\n\r\n    function getUsers() external view returns (address[] memory) {\r\n        return _getUsers();\r\n    }\r\n\r\n    function boxOf(address _user) external view returns (Box memory) {\r\n        return _boxOf(_user);\r\n    }\r\n\r\n    function destroyContract() external onlyOwner lock {\r\n        _settleDonutBoxes();\r\n\r\n        selfdestruct(payable(address(this)));\r\n    }\r\n}\r\n",
  "sourcePath": "C:\\Users\\LHH\\treat-a-donut\\src\\truffle\\contracts\\TreatADonut.sol",
  "compiler": {
    "name": "solc",
    "version": "0.8.17+commit.8df45f5f.Emscripten.clang"
  },
  "schemaVersion": "3.4.10",
  "updatedAt": "2022-12-02T07:43:51.483Z",
  "networkType": "ethereum",
  "devdoc": {
    "kind": "dev",
    "methods": {},
    "version": 1
  },
  "userdoc": {
    "kind": "user",
    "methods": {},
    "version": 1
  }
}